{
  "_format": "hh-sol-artifact-1",
  "contractName": "PredictionMarket",
  "sourceName": "contracts/PredictionMarket.sol",
  "abi": [
    {
      "inputs": [],
      "stateMutability": "nonpayable",
      "type": "constructor"
    },
    {
      "anonymous": false,
      "inputs": [
        {
          "indexed": true,
          "internalType": "address",
          "name": "agent",
          "type": "address"
        },
        {
          "indexed": false,
          "internalType": "uint256",
          "name": "id",
          "type": "uint256"
        }
      ],
      "name": "AgentRenewed",
      "type": "event"
    },
    {
      "anonymous": false,
      "inputs": [
        {
          "indexed": true,
          "internalType": "address",
          "name": "agent",
          "type": "address"
        },
        {
          "indexed": false,
          "internalType": "uint256",
          "name": "id",
          "type": "uint256"
        }
      ],
      "name": "AgentSubscribed",
      "type": "event"
    },
    {
      "anonymous": false,
      "inputs": [
        {
          "indexed": true,
          "internalType": "uint256",
          "name": "id",
          "type": "uint256"
        },
        {
          "indexed": false,
          "internalType": "string",
          "name": "question",
          "type": "string"
        },
        {
          "indexed": false,
          "internalType": "string",
          "name": "description",
          "type": "string"
        },
        {
          "indexed": false,
          "internalType": "uint256",
          "name": "endTime",
          "type": "uint256"
        },
        {
          "indexed": false,
          "internalType": "string",
          "name": "cryptoCurrency",
          "type": "string"
        }
      ],
      "name": "QuestionCreated",
      "type": "event"
    },
    {
      "anonymous": false,
      "inputs": [
        {
          "indexed": true,
          "internalType": "address",
          "name": "voter",
          "type": "address"
        },
        {
          "indexed": true,
          "internalType": "uint256",
          "name": "questionId",
          "type": "uint256"
        },
        {
          "indexed": false,
          "internalType": "bool",
          "name": "vote",
          "type": "bool"
        }
      ],
      "name": "VoteCasted",
      "type": "event"
    },
    {
      "anonymous": false,
      "inputs": [
        {
          "indexed": true,
          "internalType": "uint256",
          "name": "questionId",
          "type": "uint256"
        },
        {
          "indexed": false,
          "internalType": "bool",
          "name": "outcome",
          "type": "bool"
        }
      ],
      "name": "WinnerDeclared",
      "type": "event"
    },
    {
      "inputs": [
        {
          "internalType": "address",
          "name": "",
          "type": "address"
        },
        {
          "internalType": "uint256",
          "name": "",
          "type": "uint256"
        }
      ],
      "name": "addressToQuestionIdToAmt",
      "outputs": [
        {
          "internalType": "uint256",
          "name": "yesVotes",
          "type": "uint256"
        },
        {
          "internalType": "uint256",
          "name": "noVotes",
          "type": "uint256"
        }
      ],
      "stateMutability": "view",
      "type": "function"
    },
    {
      "inputs": [
        {
          "internalType": "uint256",
          "name": "_questionId",
          "type": "uint256"
        }
      ],
      "name": "checkAndResolveQuestion",
      "outputs": [],
      "stateMutability": "nonpayable",
      "type": "function"
    },
    {
      "inputs": [
        {
          "internalType": "uint256",
          "name": "_questionId",
          "type": "uint256"
        }
      ],
      "name": "closeQuestion",
      "outputs": [],
      "stateMutability": "nonpayable",
      "type": "function"
    },
    {
      "inputs": [
        {
          "internalType": "string",
          "name": "_question",
          "type": "string"
        },
        {
          "internalType": "string",
          "name": "_description",
          "type": "string"
        },
        {
          "internalType": "uint256",
          "name": "_endTime",
          "type": "uint256"
        },
        {
          "internalType": "string",
          "name": "_cryptoCurrency",
          "type": "string"
        },
        {
          "internalType": "uint256",
          "name": "_targetPrice",
          "type": "uint256"
        }
      ],
      "name": "createQuestion",
      "outputs": [],
      "stateMutability": "nonpayable",
      "type": "function"
    },
    {
      "inputs": [],
      "name": "getAllQuestions",
      "outputs": [
        {
          "components": [
            {
              "internalType": "uint256",
              "name": "id",
              "type": "uint256"
            },
            {
              "internalType": "string",
              "name": "question",
              "type": "string"
            },
            {
              "internalType": "string",
              "name": "description",
              "type": "string"
            },
            {
              "internalType": "uint256",
              "name": "endTime",
              "type": "uint256"
            },
            {
              "internalType": "uint256",
              "name": "yesVotes",
              "type": "uint256"
            },
            {
              "internalType": "uint256",
              "name": "noVotes",
              "type": "uint256"
            },
            {
              "internalType": "bool",
              "name": "isActive",
              "type": "bool"
            },
            {
              "internalType": "string",
              "name": "cryptoCurrency",
              "type": "string"
            }
          ],
          "internalType": "struct PredictionMarket.Question[]",
          "name": "",
          "type": "tuple[]"
        }
      ],
      "stateMutability": "view",
      "type": "function"
    },
    {
      "inputs": [
        {
          "internalType": "string",
          "name": "_cryptoCurrency",
          "type": "string"
        }
      ],
      "name": "getLatestPrice",
      "outputs": [
        {
          "internalType": "uint256",
          "name": "",
          "type": "uint256"
        }
      ],
      "stateMutability": "view",
      "type": "function"
    },
    {
      "inputs": [],
      "name": "getOwner",
      "outputs": [
        {
          "internalType": "address",
          "name": "",
          "type": "address"
        }
      ],
      "stateMutability": "view",
      "type": "function"
    },
    {
      "inputs": [
        {
          "internalType": "uint256",
          "name": "",
          "type": "uint256"
        }
      ],
      "name": "idToQuestion",
      "outputs": [
        {
          "internalType": "uint256",
          "name": "id",
          "type": "uint256"
        },
        {
          "internalType": "string",
          "name": "question",
          "type": "string"
        },
        {
          "internalType": "string",
          "name": "description",
          "type": "string"
        },
        {
          "internalType": "uint256",
          "name": "endTime",
          "type": "uint256"
        },
        {
          "internalType": "uint256",
          "name": "yesVotes",
          "type": "uint256"
        },
        {
          "internalType": "uint256",
          "name": "noVotes",
          "type": "uint256"
        },
        {
          "internalType": "bool",
          "name": "isActive",
          "type": "bool"
        },
        {
          "internalType": "string",
          "name": "cryptoCurrency",
          "type": "string"
        }
      ],
      "stateMutability": "view",
      "type": "function"
    },
    {
      "inputs": [],
      "name": "isOwner",
      "outputs": [
        {
          "internalType": "bool",
          "name": "",
          "type": "bool"
        }
      ],
      "stateMutability": "view",
      "type": "function"
    },
    {
      "inputs": [
        {
          "internalType": "uint256",
          "name": "",
          "type": "uint256"
        }
      ],
      "name": "isQuestionResolved",
      "outputs": [
        {
          "internalType": "bool",
          "name": "",
          "type": "bool"
        }
      ],
      "stateMutability": "view",
      "type": "function"
    },
    {
      "inputs": [],
      "name": "isSubscribed",
      "outputs": [
        {
          "internalType": "bool",
          "name": "",
          "type": "bool"
        }
      ],
      "stateMutability": "view",
      "type": "function"
    },
    {
      "inputs": [],
      "name": "oracle",
      "outputs": [
        {
          "internalType": "contract ISeiPriceOracle",
          "name": "",
          "type": "address"
        }
      ],
      "stateMutability": "view",
      "type": "function"
    },
    {
      "inputs": [],
      "name": "priceOracleAddress",
      "outputs": [
        {
          "internalType": "address",
          "name": "",
          "type": "address"
        }
      ],
      "stateMutability": "view",
      "type": "function"
    },
    {
      "inputs": [
        {
          "internalType": "uint256",
          "name": "",
          "type": "uint256"
        }
      ],
      "name": "questionTargetPrices",
      "outputs": [
        {
          "internalType": "uint256",
          "name": "",
          "type": "uint256"
        }
      ],
      "stateMutability": "view",
      "type": "function"
    },
    {
      "inputs": [
        {
          "internalType": "uint256",
          "name": "",
          "type": "uint256"
        }
      ],
      "name": "questionToWinningOutcome",
      "outputs": [
        {
          "internalType": "bool",
          "name": "",
          "type": "bool"
        }
      ],
      "stateMutability": "view",
      "type": "function"
    },
    {
      "inputs": [],
      "name": "renewSubscription",
      "outputs": [],
      "stateMutability": "payable",
      "type": "function"
    },
    {
      "inputs": [],
      "name": "subscribeAgent",
      "outputs": [],
      "stateMutability": "payable",
      "type": "function"
    },
    {
      "inputs": [],
      "name": "subscriptionFee",
      "outputs": [
        {
          "internalType": "uint256",
          "name": "",
          "type": "uint256"
        }
      ],
      "stateMutability": "view",
      "type": "function"
    },
    {
      "inputs": [],
      "name": "totalAgents",
      "outputs": [
        {
          "internalType": "uint256",
          "name": "",
          "type": "uint256"
        }
      ],
      "stateMutability": "view",
      "type": "function"
    },
    {
      "inputs": [],
      "name": "totalQuestions",
      "outputs": [
        {
          "internalType": "uint256",
          "name": "",
          "type": "uint256"
        }
      ],
      "stateMutability": "view",
      "type": "function"
    },
    {
      "inputs": [
        {
          "internalType": "address",
          "name": "",
          "type": "address"
        }
      ],
      "name": "userToAgent",
      "outputs": [
        {
          "internalType": "uint256",
          "name": "id",
          "type": "uint256"
        },
        {
          "internalType": "address",
          "name": "walletAddress",
          "type": "address"
        },
        {
          "internalType": "bool",
          "name": "isAcitve",
          "type": "bool"
        },
        {
          "internalType": "uint256",
          "name": "endTime",
          "type": "uint256"
        }
      ],
      "stateMutability": "view",
      "type": "function"
    },
    {
      "inputs": [
        {
          "internalType": "uint256",
          "name": "_questionId",
          "type": "uint256"
        },
        {
          "internalType": "bool",
          "name": "_vote",
          "type": "bool"
        }
      ],
      "name": "vote",
      "outputs": [],
      "stateMutability": "payable",
      "type": "function"
    },
    {
      "inputs": [
        {
          "internalType": "uint256",
          "name": "_questionId",
          "type": "uint256"
        },
        {
          "internalType": "uint256",
          "name": "_amount",
          "type": "uint256"
        },
        {
          "internalType": "bool",
          "name": "_vote",
          "type": "bool"
        }
      ],
      "name": "withdrawBets",
      "outputs": [],
      "stateMutability": "nonpayable",
      "type": "function"
    }
  ],
  "bytecode": "0x608060405267016345785d8a0000600355348015601b57600080fd5b50336000806101000a81548173ffffffffffffffffffffffffffffffffffffffff021916908373ffffffffffffffffffffffffffffffffffffffff160217905550732880ab155794e7179c9ee2e38200202908c17b43600a60006101000a81548173ffffffffffffffffffffffffffffffffffffffff021916908373ffffffffffffffffffffffffffffffffffffffff1602179055506138e2806100c06000396000f3fe6080604052600436106101405760003560e01c8063882803b2116100b6578063bea5b9141161006f578063bea5b91414610451578063c09f32e81461047c578063c5053712146104a5578063c8a9011b146104d0578063c9d27afe146104f9578063f66a1b711461051557610140565b8063882803b214610316578063893d20e8146103535780638a2815541461037e5780638f32d59b146103a9578063983856fc146103d4578063a7ba27ab1461041157610140565b806342f4d88b1161010857806342f4d88b146102415780634bda260e1461026a5780636e3079811461029357806375abbafe1461029d5780637ca490dc146102a75780637dc0d1d0146102eb57610140565b8063098cbcb1146101455780630aa0a175146101835780631d1e25f9146101ae5780632af9338e146101eb5780632bc51c6d14610216575b600080fd5b34801561015157600080fd5b5061016c60048036038101906101679190612308565b610552565b60405161017a929190612357565b60405180910390f35b34801561018f57600080fd5b50610198610583565b6040516101a59190612380565b60405180910390f35b3480156101ba57600080fd5b506101d560048036038101906101d0919061239b565b610589565b6040516101e29190612380565b60405180910390f35b3480156101f757600080fd5b506102006105a1565b60405161020d9190612602565b60405180910390f35b34801561022257600080fd5b5061022b61086a565b6040516102389190612633565b60405180910390f35b34801561024d57600080fd5b506102686004803603810190610263919061239b565b610882565b005b34801561027657600080fd5b50610291600480360381019061028c919061267a565b610b8b565b005b61029b6112a8565b005b6102a5611500565b005b3480156102b357600080fd5b506102ce60048036038101906102c9919061239b565b611746565b6040516102e2989796959493929190612726565b60405180910390f35b3480156102f757600080fd5b50610300611933565b60405161030d9190612818565b60405180910390f35b34801561032257600080fd5b5061033d6004803603810190610338919061239b565b611959565b60405161034a9190612833565b60405180910390f35b34801561035f57600080fd5b50610368611979565b6040516103759190612633565b60405180910390f35b34801561038a57600080fd5b506103936119a2565b6040516103a09190612833565b60405180910390f35b3480156103b557600080fd5b506103be6119f9565b6040516103cb9190612833565b60405180910390f35b3480156103e057600080fd5b506103fb60048036038101906103f6919061239b565b611a50565b6040516104089190612833565b60405180910390f35b34801561041d57600080fd5b506104386004803603810190610433919061284e565b611a70565b604051610448949392919061287b565b60405180910390f35b34801561045d57600080fd5b50610466611acd565b6040516104739190612380565b60405180910390f35b34801561048857600080fd5b506104a3600480360381019061049e919061239b565b611ad3565b005b3480156104b157600080fd5b506104ba611c4e565b6040516104c79190612380565b60405180910390f35b3480156104dc57600080fd5b506104f760048036038101906104f291906129f5565b611c54565b005b610513600480360381019061050e9190612ac4565b611eea565b005b34801561052157600080fd5b5061053c60048036038101906105379190612b04565b61216f565b6040516105499190612380565b60405180910390f35b6006602052816000526040600020602052806000526040600020600091509150508060000154908060010154905082565b60035481565b60096020528060005260406000206000915090505481565b6060600060025467ffffffffffffffff8111156105c1576105c06128ca565b5b6040519080825280602002602001820160405280156105fa57816020015b6105e7612219565b8152602001906001900390816105df5790505b5090506000600190505b60025481116108625760086000828152602001908152602001600020604051806101000160405290816000820154815260200160018201805461064690612b7c565b80601f016020809104026020016040519081016040528092919081815260200182805461067290612b7c565b80156106bf5780601f10610694576101008083540402835291602001916106bf565b820191906000526020600020905b8154815290600101906020018083116106a257829003601f168201915b505050505081526020016002820180546106d890612b7c565b80601f016020809104026020016040519081016040528092919081815260200182805461070490612b7c565b80156107515780601f1061072657610100808354040283529160200191610751565b820191906000526020600020905b81548152906001019060200180831161073457829003601f168201915b505050505081526020016003820154815260200160048201548152602001600582015481526020016006820160009054906101000a900460ff161515151581526020016007820180546107a390612b7c565b80601f01602080910402602001604051908101604052809291908181526020018280546107cf90612b7c565b801561081c5780601f106107f15761010080835404028352916020019161081c565b820191906000526020600020905b8154815290600101906020018083116107ff57829003601f168201915b505050505081525050826001836108339190612bdc565b8151811061084457610843612c10565b5b6020026020010181905250808061085a90612c3f565b915050610604565b508091505090565b732880ab155794e7179c9ee2e38200202908c17b4381565b60008054906101000a900473ffffffffffffffffffffffffffffffffffffffff1673ffffffffffffffffffffffffffffffffffffffff163373ffffffffffffffffffffffffffffffffffffffff1614610910576040517f08c379a000000000000000000000000000000000000000000000000000000000815260040161090790612cf9565b60405180910390fd5b60006008600083815260200190815260200160002090508060060160009054906101000a900460ff16610978576040517f08c379a000000000000000000000000000000000000000000000000000000000815260040161096f90612d65565b60405180910390fd5b428160030154106109be576040517f08c379a00000000000000000000000000000000000000000000000000000000081526004016109b590612dd1565b60405180910390fd5b6004600083815260200190815260200160002060009054906101000a900460ff1615610a1f576040517f08c379a0000000000000000000000000000000000000000000000000000000008152600401610a1690612e3d565b60405180910390fd5b6000610ab6826007018054610a3390612b7c565b80601f0160208091040260200160405190810160405280929190818152602001828054610a5f90612b7c565b8015610aac5780601f10610a8157610100808354040283529160200191610aac565b820191906000526020600020905b815481529060010190602001808311610a8f57829003601f168201915b505050505061216f565b9050600060096000858152602001908152602001600020549050600081831015905060008460060160006101000a81548160ff021916908315150217905550806005600087815260200190815260200160002060006101000a81548160ff02191690831515021790555060016004600087815260200190815260200160002060006101000a81548160ff021916908315150217905550847faefd4aafc65152d4c3b7bbfe3a796d25e24eb2902bfef1ef90fe115f02af980282604051610b7c9190612833565b60405180910390a25050505050565b60008211610bce576040517f08c379a0000000000000000000000000000000000000000000000000000000008152600401610bc590612ea9565b60405180910390fd5b600060086000858152602001908152602001600020905060008215156005600087815260200190815260200160002060009054906101000a900460ff16151514905080610c50576040517f08c379a0000000000000000000000000000000000000000000000000000000008152600401610c4790612f15565b60405180910390fd5b600082600501548360040154610c669190612f35565b9050600084610c79578360050154610c7f565b83600401545b90506004600088815260200190815260200160002060009054906101000a900460ff1615610f86576005600088815260200190815260200160002060009054906101000a900460ff16151585151503610f81576000600660003373ffffffffffffffffffffffffffffffffffffffff1673ffffffffffffffffffffffffffffffffffffffff1681526020019081526020016000206000898152602001908152602001600020600001541015610d69576040517f08c379a0000000000000000000000000000000000000000000000000000000008152600401610d6090612fb5565b60405180910390fd5b600085610dc957600660003373ffffffffffffffffffffffffffffffffffffffff1673ffffffffffffffffffffffffffffffffffffffff168152602001908152602001600020600089815260200190815260200160002060010154610e1e565b600660003373ffffffffffffffffffffffffffffffffffffffff1673ffffffffffffffffffffffffffffffffffffffff1681526020019081526020016000206000898152602001908152602001600020600001545b90506000600660003373ffffffffffffffffffffffffffffffffffffffff1673ffffffffffffffffffffffffffffffffffffffff16815260200190815260200160002060008a8152602001908152602001600020600001819055506000600660003373ffffffffffffffffffffffffffffffffffffffff1673ffffffffffffffffffffffffffffffffffffffff16815260200190815260200160002060008a81526020019081526020016000206001018190555060003373ffffffffffffffffffffffffffffffffffffffff1682604051610ef890613006565b60006040518083038185875af1925050503d8060008114610f35576040519150601f19603f3d011682016040523d82523d6000602084013e610f3a565b606091505b5050905080610f7e576040517f08c379a0000000000000000000000000000000000000000000000000000000008152600401610f7590613067565b60405180910390fd5b50505b61129f565b84156110915785600660003373ffffffffffffffffffffffffffffffffffffffff1673ffffffffffffffffffffffffffffffffffffffff1681526020019081526020016000206000898152602001908152602001600020600001541015611022576040517f08c379a000000000000000000000000000000000000000000000000000000000815260040161101990612fb5565b60405180910390fd5b85600660003373ffffffffffffffffffffffffffffffffffffffff1673ffffffffffffffffffffffffffffffffffffffff168152602001908152602001600020600089815260200190815260200160002060000160008282546110859190612bdc565b92505081905550611192565b85600660003373ffffffffffffffffffffffffffffffffffffffff1673ffffffffffffffffffffffffffffffffffffffff1681526020019081526020016000206000898152602001908152602001600020600101541015611127576040517f08c379a000000000000000000000000000000000000000000000000000000000815260040161111e906130d3565b60405180910390fd5b85600660003373ffffffffffffffffffffffffffffffffffffffff1673ffffffffffffffffffffffffffffffffffffffff1681526020019081526020016000206000898152602001908152602001600020600101600082825461118a9190612bdc565b925050819055505b60008183886111a191906130f3565b6111ab9190613164565b9050804710156111f0576040517f08c379a00000000000000000000000000000000000000000000000000000000081526004016111e7906131e1565b60405180910390fd5b60003373ffffffffffffffffffffffffffffffffffffffff168260405161121690613006565b60006040518083038185875af1925050503d8060008114611253576040519150601f19603f3d011682016040523d82523d6000602084013e611258565b606091505b505090508061129c576040517f08c379a000000000000000000000000000000000000000000000000000000000815260040161129390613067565b60405180910390fd5b50505b50505050505050565b6003543410156112ed576040517f08c379a00000000000000000000000000000000000000000000000000000000081526004016112e490613273565b60405180910390fd5b600073ffffffffffffffffffffffffffffffffffffffff16600760003373ffffffffffffffffffffffffffffffffffffffff1673ffffffffffffffffffffffffffffffffffffffff16815260200190815260200160002060010160009054906101000a900473ffffffffffffffffffffffffffffffffffffffff1673ffffffffffffffffffffffffffffffffffffffff16036113be576040517f08c379a00000000000000000000000000000000000000000000000000000000081526004016113b590613305565b60405180910390fd5b62278d00426113cd9190612f35565b600760003373ffffffffffffffffffffffffffffffffffffffff1673ffffffffffffffffffffffffffffffffffffffff168152602001908152602001600020600201819055506001600760003373ffffffffffffffffffffffffffffffffffffffff1673ffffffffffffffffffffffffffffffffffffffff16815260200190815260200160002060010160146101000a81548160ff0219169083151502179055503373ffffffffffffffffffffffffffffffffffffffff167f9985e74fe05da874830fda014601404ec5a28526a398ea1d6979e533bcbfc2a0600760003373ffffffffffffffffffffffffffffffffffffffff1673ffffffffffffffffffffffffffffffffffffffff168152602001908152602001600020600001546040516114f69190612380565b60405180910390a2565b600354341015611545576040517f08c379a000000000000000000000000000000000000000000000000000000000815260040161153c90613273565b60405180910390fd5b600760003373ffffffffffffffffffffffffffffffffffffffff1673ffffffffffffffffffffffffffffffffffffffff16815260200190815260200160002060010160149054906101000a900460ff16156115d5576040517f08c379a00000000000000000000000000000000000000000000000000000000081526004016115cc90613371565b60405180910390fd5b600160008154809291906115e890612c3f565b9190505550604051806080016040528060015481526020013373ffffffffffffffffffffffffffffffffffffffff16815260200160011515815260200162278d00426116349190612f35565b815250600760003373ffffffffffffffffffffffffffffffffffffffff1673ffffffffffffffffffffffffffffffffffffffff1681526020019081526020016000206000820151816000015560208201518160010160006101000a81548173ffffffffffffffffffffffffffffffffffffffff021916908373ffffffffffffffffffffffffffffffffffffffff16021790555060408201518160010160146101000a81548160ff021916908315150217905550606082015181600201559050503373ffffffffffffffffffffffffffffffffffffffff167f1aa06fd7f962d84cbccf87fe7c55cca5f1bdb9d63cf6ec9169e1aa9d1d777e4b60015460405161173c9190612380565b60405180910390a2565b600860205280600052604060002060009150905080600001549080600101805461176f90612b7c565b80601f016020809104026020016040519081016040528092919081815260200182805461179b90612b7c565b80156117e85780601f106117bd576101008083540402835291602001916117e8565b820191906000526020600020905b8154815290600101906020018083116117cb57829003601f168201915b5050505050908060020180546117fd90612b7c565b80601f016020809104026020016040519081016040528092919081815260200182805461182990612b7c565b80156118765780601f1061184b57610100808354040283529160200191611876565b820191906000526020600020905b81548152906001019060200180831161185957829003601f168201915b5050505050908060030154908060040154908060050154908060060160009054906101000a900460ff16908060070180546118b090612b7c565b80601f01602080910402602001604051908101604052809291908181526020018280546118dc90612b7c565b80156119295780601f106118fe57610100808354040283529160200191611929565b820191906000526020600020905b81548152906001019060200180831161190c57829003601f168201915b5050505050905088565b600a60009054906101000a900473ffffffffffffffffffffffffffffffffffffffff1681565b60046020528060005260406000206000915054906101000a900460ff1681565b60008060009054906101000a900473ffffffffffffffffffffffffffffffffffffffff16905090565b6000600760003373ffffffffffffffffffffffffffffffffffffffff1673ffffffffffffffffffffffffffffffffffffffff16815260200190815260200160002060010160149054906101000a900460ff16905090565b60008060009054906101000a900473ffffffffffffffffffffffffffffffffffffffff1673ffffffffffffffffffffffffffffffffffffffff163373ffffffffffffffffffffffffffffffffffffffff1614905090565b60056020528060005260406000206000915054906101000a900460ff1681565b60076020528060005260406000206000915090508060000154908060010160009054906101000a900473ffffffffffffffffffffffffffffffffffffffff16908060010160149054906101000a900460ff16908060020154905084565b60025481565b60008054906101000a900473ffffffffffffffffffffffffffffffffffffffff1673ffffffffffffffffffffffffffffffffffffffff163373ffffffffffffffffffffffffffffffffffffffff1614611b61576040517f08c379a0000000000000000000000000000000000000000000000000000000008152600401611b5890612cf9565b60405180910390fd5b6008600082815260200190815260200160002060060160009054906101000a900460ff16611bc4576040517f08c379a0000000000000000000000000000000000000000000000000000000008152600401611bbb90612d65565b60405180910390fd5b42600860008381526020019081526020016000206003015410611c1c576040517f08c379a0000000000000000000000000000000000000000000000000000000008152600401611c13906133dd565b60405180910390fd5b60006008600083815260200190815260200160002060060160006101000a81548160ff02191690831515021790555050565b60015481565b60008054906101000a900473ffffffffffffffffffffffffffffffffffffffff1673ffffffffffffffffffffffffffffffffffffffff163373ffffffffffffffffffffffffffffffffffffffff1614611ce2576040517f08c379a0000000000000000000000000000000000000000000000000000000008152600401611cd990612cf9565b60405180910390fd5b60008551118015611cf4575060008451115b611d33576040517f08c379a0000000000000000000000000000000000000000000000000000000008152600401611d2a9061346f565b60405180910390fd5b428311611d75576040517f08c379a0000000000000000000000000000000000000000000000000000000008152600401611d6c906134db565b60405180910390fd5b60026000815480929190611d8890612c3f565b919050555060405180610100016040528060025481526020018681526020018581526020018442611db99190612f35565b8152602001670de0b6b3a76400008152602001670de0b6b3a7640000815260200160011515815260200183815250600860006002548152602001908152602001600020600082015181600001556020820151816001019081611e1b919061369d565b506040820151816002019081611e31919061369d565b50606082015181600301556080820151816004015560a0820151816005015560c08201518160060160006101000a81548160ff02191690831515021790555060e0820151816007019081611e85919061369d565b5090505080600960006002548152602001908152602001600020819055506002547f11a35247cf7413f8e11e7038ca020c800f79c3318ceddb8a33dfe98f7f2de27186868686604051611edb949392919061376f565b60405180910390a25050505050565b6008600083815260200190815260200160002060060160009054906101000a900460ff16611f4d576040517f08c379a0000000000000000000000000000000000000000000000000000000008152600401611f4490612d65565b60405180910390fd5b42600860008481526020019081526020016000206003015411611fa5576040517f08c379a0000000000000000000000000000000000000000000000000000000008152600401611f9c90613815565b60405180910390fd5b60003411611fe8576040517f08c379a0000000000000000000000000000000000000000000000000000000008152600401611fdf90612ea9565b60405180910390fd5b600060086000848152602001908152602001600020905060003490508215612094578082600401600082825461201e9190612f35565b9250508190555080600660003373ffffffffffffffffffffffffffffffffffffffff1673ffffffffffffffffffffffffffffffffffffffff168152602001908152602001600020600086815260200190815260200160002060000160008282546120889190612f35565b9250508190555061211a565b808260050160008282546120a89190612f35565b9250508190555080600660003373ffffffffffffffffffffffffffffffffffffffff1673ffffffffffffffffffffffffffffffffffffffff168152602001908152602001600020600086815260200190815260200160002060010160008282546121129190612f35565b925050819055505b833373ffffffffffffffffffffffffffffffffffffffff167fe407334acb3e7927b72550847e6c9c4ead41f6f2b16820ad3953717b010f6818856040516121619190612833565b60405180910390a350505050565b600080600a60009054906101000a900473ffffffffffffffffffffffffffffffffffffffff1673ffffffffffffffffffffffffffffffffffffffff1663524f3889846040518263ffffffff1660e01b81526004016121cd9190613835565b6040805180830381865afa1580156121e9573d6000803e3d6000fd5b505050506040513d601f19601f8201168201806040525081019061220d919061386c565b50905080915050919050565b604051806101000160405280600081526020016060815260200160608152602001600081526020016000815260200160008152602001600015158152602001606081525090565b6000604051905090565b600080fd5b600080fd5b600073ffffffffffffffffffffffffffffffffffffffff82169050919050565b600061229f82612274565b9050919050565b6122af81612294565b81146122ba57600080fd5b50565b6000813590506122cc816122a6565b92915050565b6000819050919050565b6122e5816122d2565b81146122f057600080fd5b50565b600081359050612302816122dc565b92915050565b6000806040838503121561231f5761231e61226a565b5b600061232d858286016122bd565b925050602061233e858286016122f3565b9150509250929050565b612351816122d2565b82525050565b600060408201905061236c6000830185612348565b6123796020830184612348565b9392505050565b60006020820190506123956000830184612348565b92915050565b6000602082840312156123b1576123b061226a565b5b60006123bf848285016122f3565b91505092915050565b600081519050919050565b600082825260208201905092915050565b6000819050602082019050919050565b6123fd816122d2565b82525050565b600081519050919050565b600082825260208201905092915050565b60005b8381101561243d578082015181840152602081019050612422565b60008484015250505050565b6000601f19601f8301169050919050565b600061246582612403565b61246f818561240e565b935061247f81856020860161241f565b61248881612449565b840191505092915050565b60008115159050919050565b6124a881612493565b82525050565b6000610100830160008301516124c760008601826123f4565b50602083015184820360208601526124df828261245a565b915050604083015184820360408601526124f9828261245a565b915050606083015161250e60608601826123f4565b50608083015161252160808601826123f4565b5060a083015161253460a08601826123f4565b5060c083015161254760c086018261249f565b5060e083015184820360e086015261255f828261245a565b9150508091505092915050565b600061257883836124ae565b905092915050565b6000602082019050919050565b6000612598826123c8565b6125a281856123d3565b9350836020820285016125b4856123e4565b8060005b858110156125f057848403895281516125d1858261256c565b94506125dc83612580565b925060208a019950506001810190506125b8565b50829750879550505050505092915050565b6000602082019050818103600083015261261c818461258d565b905092915050565b61262d81612294565b82525050565b60006020820190506126486000830184612624565b92915050565b61265781612493565b811461266257600080fd5b50565b6000813590506126748161264e565b92915050565b6000806000606084860312156126935761269261226a565b5b60006126a1868287016122f3565b93505060206126b2868287016122f3565b92505060406126c386828701612665565b9150509250925092565b600082825260208201905092915050565b60006126e982612403565b6126f381856126cd565b935061270381856020860161241f565b61270c81612449565b840191505092915050565b61272081612493565b82525050565b60006101008201905061273c600083018b612348565b818103602083015261274e818a6126de565b9050818103604083015261276281896126de565b90506127716060830188612348565b61277e6080830187612348565b61278b60a0830186612348565b61279860c0830185612717565b81810360e08301526127aa81846126de565b90509998505050505050505050565b6000819050919050565b60006127de6127d96127d484612274565b6127b9565b612274565b9050919050565b60006127f0826127c3565b9050919050565b6000612802826127e5565b9050919050565b612812816127f7565b82525050565b600060208201905061282d6000830184612809565b92915050565b60006020820190506128486000830184612717565b92915050565b6000602082840312156128645761286361226a565b5b6000612872848285016122bd565b91505092915050565b60006080820190506128906000830187612348565b61289d6020830186612624565b6128aa6040830185612717565b6128b76060830184612348565b95945050505050565b600080fd5b600080fd5b7f4e487b7100000000000000000000000000000000000000000000000000000000600052604160045260246000fd5b61290282612449565b810181811067ffffffffffffffff82111715612921576129206128ca565b5b80604052505050565b6000612934612260565b905061294082826128f9565b919050565b600067ffffffffffffffff8211156129605761295f6128ca565b5b61296982612449565b9050602081019050919050565b82818337600083830152505050565b600061299861299384612945565b61292a565b9050828152602081018484840111156129b4576129b36128c5565b5b6129bf848285612976565b509392505050565b600082601f8301126129dc576129db6128c0565b5b81356129ec848260208601612985565b91505092915050565b600080600080600060a08688031215612a1157612a1061226a565b5b600086013567ffffffffffffffff811115612a2f57612a2e61226f565b5b612a3b888289016129c7565b955050602086013567ffffffffffffffff811115612a5c57612a5b61226f565b5b612a68888289016129c7565b9450506040612a79888289016122f3565b935050606086013567ffffffffffffffff811115612a9a57612a9961226f565b5b612aa6888289016129c7565b9250506080612ab7888289016122f3565b9150509295509295909350565b60008060408385031215612adb57612ada61226a565b5b6000612ae9858286016122f3565b9250506020612afa85828601612665565b9150509250929050565b600060208284031215612b1a57612b1961226a565b5b600082013567ffffffffffffffff811115612b3857612b3761226f565b5b612b44848285016129c7565b91505092915050565b7f4e487b7100000000000000000000000000000000000000000000000000000000600052602260045260246000fd5b60006002820490506001821680612b9457607f821691505b602082108103612ba757612ba6612b4d565b5b50919050565b7f4e487b7100000000000000000000000000000000000000000000000000000000600052601160045260246000fd5b6000612be7826122d2565b9150612bf2836122d2565b9250828203905081811115612c0a57612c09612bad565b5b92915050565b7f4e487b7100000000000000000000000000000000000000000000000000000000600052603260045260246000fd5b6000612c4a826122d2565b91507fffffffffffffffffffffffffffffffffffffffffffffffffffffffffffffffff8203612c7c57612c7b612bad565b5b600182019050919050565b7f4f6e6c7920746865206f776e65722063616e2063616c6c20746869732066756e60008201527f6374696f6e000000000000000000000000000000000000000000000000000000602082015250565b6000612ce36025836126cd565b9150612cee82612c87565b604082019050919050565b60006020820190508181036000830152612d1281612cd6565b9050919050565b7f5175657374696f6e206973206e6f742061637469766500000000000000000000600082015250565b6000612d4f6016836126cd565b9150612d5a82612d19565b602082019050919050565b60006020820190508181036000830152612d7e81612d42565b9050919050565b7f5175657374696f6e20686173206e6f7420656e64656420796574000000000000600082015250565b6000612dbb601a836126cd565b9150612dc682612d85565b602082019050919050565b60006020820190508181036000830152612dea81612dae565b9050919050565b7f5175657374696f6e20616c7265616479207265736f6c76656400000000000000600082015250565b6000612e276019836126cd565b9150612e3282612df1565b602082019050919050565b60006020820190508181036000830152612e5681612e1a565b9050919050565b7f416d6f756e74206d7573742062652067726561746572207468616e2030000000600082015250565b6000612e93601d836126cd565b9150612e9e82612e5d565b602082019050919050565b60006020820190508181036000830152612ec281612e86565b9050919050565b7f43616e206f6e6c792077697468647261772077696e6e696e6720626574730000600082015250565b6000612eff601e836126cd565b9150612f0a82612ec9565b602082019050919050565b60006020820190508181036000830152612f2e81612ef2565b9050919050565b6000612f40826122d2565b9150612f4b836122d2565b9250828201905080821115612f6357612f62612bad565b5b92915050565b7f496e73756666696369656e742079657320766f74657300000000000000000000600082015250565b6000612f9f6016836126cd565b9150612faa82612f69565b602082019050919050565b60006020820190508181036000830152612fce81612f92565b9050919050565b600081905092915050565b50565b6000612ff0600083612fd5565b9150612ffb82612fe0565b600082019050919050565b600061301182612fe3565b9150819050919050565b7f5472616e73666572206661696c65640000000000000000000000000000000000600082015250565b6000613051600f836126cd565b915061305c8261301b565b602082019050919050565b6000602082019050818103600083015261308081613044565b9050919050565b7f496e73756666696369656e74206e6f20766f7465730000000000000000000000600082015250565b60006130bd6015836126cd565b91506130c882613087565b602082019050919050565b600060208201905081810360008301526130ec816130b0565b9050919050565b60006130fe826122d2565b9150613109836122d2565b9250828202613117816122d2565b9150828204841483151761312e5761312d612bad565b5b5092915050565b7f4e487b7100000000000000000000000000000000000000000000000000000000600052601260045260246000fd5b600061316f826122d2565b915061317a836122d2565b92508261318a57613189613135565b5b828204905092915050565b7f496e73756666696369656e7420636f6e74726163742062616c616e6365000000600082015250565b60006131cb601d836126cd565b91506131d682613195565b602082019050919050565b600060208201905081810360008301526131fa816131be565b9050919050565b7f416d6f756e74206d7573742062652067726561746572207468616e206f72206560008201527f7175616c20746f20302e31206574686572000000000000000000000000000000602082015250565b600061325d6031836126cd565b915061326882613201565b604082019050919050565b6000602082019050818103600083015261328c81613250565b9050919050565b7f4e6f74206120737562736372696265722c20666972737420737562736372696260008201527f6520617320616e206167656e7400000000000000000000000000000000000000602082015250565b60006132ef602d836126cd565b91506132fa82613293565b604082019050919050565b6000602082019050818103600083015261331e816132e2565b9050919050565b7f596f752061726520616c726561647920616e206167656e740000000000000000600082015250565b600061335b6018836126cd565b915061336682613325565b602082019050919050565b6000602082019050818103600083015261338a8161334e565b9050919050565b7f5175657374696f6e206973206e6f742065787069726564000000000000000000600082015250565b60006133c76017836126cd565b91506133d282613391565b602082019050919050565b600060208201905081810360008301526133f6816133ba565b9050919050565b7f5175657374696f6e20616e64206465736372697074696f6e206d757374206e6f60008201527f7420626520656d70747900000000000000000000000000000000000000000000602082015250565b6000613459602a836126cd565b9150613464826133fd565b604082019050919050565b600060208201905081810360008301526134888161344c565b9050919050565b7f456e642074696d65206d75737420626520696e20746865206675747572650000600082015250565b60006134c5601e836126cd565b91506134d08261348f565b602082019050919050565b600060208201905081810360008301526134f4816134b8565b9050919050565b60008190508160005260206000209050919050565b60006020601f8301049050919050565b600082821b905092915050565b60006008830261355d7fffffffffffffffffffffffffffffffffffffffffffffffffffffffffffffffff82613520565b6135678683613520565b95508019841693508086168417925050509392505050565b600061359a613595613590846122d2565b6127b9565b6122d2565b9050919050565b6000819050919050565b6135b48361357f565b6135c86135c0826135a1565b84845461352d565b825550505050565b600090565b6135dd6135d0565b6135e88184846135ab565b505050565b5b8181101561360c576136016000826135d5565b6001810190506135ee565b5050565b601f82111561365157613622816134fb565b61362b84613510565b8101602085101561363a578190505b61364e61364685613510565b8301826135ed565b50505b505050565b600082821c905092915050565b600061367460001984600802613656565b1980831691505092915050565b600061368d8383613663565b9150826002028217905092915050565b6136a682612403565b67ffffffffffffffff8111156136bf576136be6128ca565b5b6136c98254612b7c565b6136d4828285613610565b600060209050601f83116001811461370757600084156136f5578287015190505b6136ff8582613681565b865550613767565b601f198416613715866134fb565b60005b8281101561373d57848901518255600182019150602085019450602081019050613718565b8683101561375a5784890151613756601f891682613663565b8355505b6001600288020188555050505b505050505050565b6000608082019050818103600083015261378981876126de565b9050818103602083015261379d81866126de565b90506137ac6040830185612348565b81810360608301526137be81846126de565b905095945050505050565b7f5175657374696f6e206861732065787069726564000000000000000000000000600082015250565b60006137ff6014836126cd565b915061380a826137c9565b602082019050919050565b6000602082019050818103600083015261382e816137f2565b9050919050565b6000602082019050818103600083015261384f81846126de565b905092915050565b600081519050613866816122dc565b92915050565b600080604083850312156138835761388261226a565b5b600061389185828601613857565b92505060206138a285828601613857565b915050925092905056fea2646970667358221220d46ce0b61227d929fd5de7faeff5b19bcb26af29943fc414e81436b50827b33964736f6c634300081c0033",
  "linkReferences": {},
  "deployedLinkReferences": {}
}